:1000000012C077C02BC02AC029C028C027C026C074
:1000100025C024C023C022C021C020C01FC01EC0D4
:100020001DC01CC01BC011241FBECFE5D4E0DEBF25
:10003000CDBF10E0A0E6B0E0EAE4F2E002C0059037
:100040000D92A036B107D9F710E0A0E6B0E001C0EC
:100050001D92A336B107E1F7F3D0F5C0D1CF20B59B
:10006000922B90BD99B1892B89B98AB188698AB9D7
:1000700080B5866880BD08955D9BFECF8CB90895DC
:10008000CF93DF93C3E0D0E08091600090E00C2E2E
:1000900002C0959587950A94E2F780FF03C081E33B
:1000A000EBDF02C080E3E8DF21978FEFCF3FD80777
:1000B00059F780E2E1DFC7E0D0E08091610090E095
:1000C0000C2E02C0959587950A94E2F780FF03C035
:1000D00081E3D2DF02C080E3CFDF21978FEFCF3FF4
:1000E000D80759F78DE0C8DF8AE0C6DFDF91CF91EE
:1000F00008951F920F920FB60F9211242F933F93E2
:100100004F935F936F937F938F939F93AF93BF931F
:10011000EF93FF9380916200833058F180916200E9
:10012000873038F5839B12C02091620030E0235065
:10013000304081E090E002C0880F991F2A95E2F7D5
:1001400090916000892B8093600041C020916200F3
:1001500030E02350304081E090E002C0880F991FCA
:100160002A95E2F780959091600089238093600042
:100170002EC080916200803150F1809162008931FF
:1001800030F5839B12C02091620030E02051304056
:1001900081E090E002C0880F991F2A95E2F79091C4
:1001A0006100892B8093610012C02091620030E0D1
:1001B0002051304081E090E002C0880F991F2A95BD
:1001C000E2F780959091610089238093610080918E
:1001D0006200893121F41092620052DF05C08091E3
:1001E00062008F5F80936200FF91EF91BF91AF91AA
:1001F0009F918F917F916F915F914F913F912F913F
:100200000F900FBE0F901F90189585B7836485BF20
:100210008BB780648BBF87E690E021DFC19A8FEFB8
:1002200093EDA0E381509040A040E1F700C00000B2
:10023000C198809161008E7F8093610078940895C9
:0A024000E4DF1EDFFFCFF894FFCFCC
:00000001FF
